:100000000C9434000C943E000C943E000C943E0082
:100010000C943E000C943E000C943E000C943E0068
:100020000C943E000C943E000C943E000C943E0058
:100030000C943E000C943E000C943E000C943E0048
:100040000C943E000C943E000C943E000C943E0038
:100050000C943E000C943E000C943E000C943E0028
:100060000C943E000C943E0011241FBECFEFD8E04C
:10007000DEBFCDBF0E9440000C9454000C940000E1
:1000800084B18F6084B990E080E09C012F703327A9
:1000900025B92FEF39E648E1215030404040E1F7E3
:0C00A00000C000000196F1CFF894FFCFE3
:00000001FF
